:100000006BC0000091C000008FC0000002C500005E
:1000100029C5000050C5000087C0000085C0000051
:1000200083C0000081C000007FC00000E6C6000061
:100030007BC0000079C0000077C0000075C00000E0
:100040000C94B31D71C000000C9416180C94601829
:100050006BC0000069C0000067C0000065C0000000
:10006000C4C0000061C000000000000024002700A0
:100070002A0000000000250028002B0000000000DE
:1000800023002600290004040404040404040202DA
:100090000202020203030303030301020408102007
:1000A0004080010204081020010204081020000012
:1000B0000007000201000003040600000000000029
:1000C00000007D03FC158316B416E5162817591792
:1000D0008A17BB172F1BA31B11241FBECFEFD8E01D
:1000E000DEBFCDBF11E0A0E0B1E0E0E4FFE302C07D
:1000F00005900D92A235B107D9F715E0A2E5B1E060
:1001000001C01D92AD3EB107E1F710E0C8EDD0E0AF
:1001100004C02297FE010E949A1FC23CD107C9F772
:100120000E949D1D0C949E1F6BCFDC0101C06D933E
:1001300041505040E0F70895FC0101900020E9F79C
:10014000809590958E0F9F1F0895DF93CF93CDB725
:10015000DEB7809100019091010161E00E94DC1EF8
:1001600064E670E080E090E00E94091E809100014A
:100170009091010160E00E94DC1E64E670E080E086
:1001800090E00E94091ECF91DF910895DF93CF93F5
:10019000CDB7DEB764EF71E080E090E00E94091E09
:1001A000809100019091010161E00E949D1ECF911C
:1001B000DF910895482F613210F081E00895809119
:1001C0005201843011F082E0089560939D01ACE704
:1001D000B1E0842F9C01F90102C081918D938E2F93
:1001E000841B8617D0F380E008951F920F920FB6FC
:1001F0000F9211242F933F934F935F936F937F93AD
:100200008F939F93AF93BF93EF93FF938091B90028
:1002100090E0887F90708036910509F4F2C08136B5
:100220009105CCF58832910509F47BC0893291059E
:10023000B4F48031910509F46FC0813191053CF42B
:10024000009709F447C1089709F04FC165C088318C
:10025000910509F466C0809709F047C182C08034D7
:10026000910509F4A4C08134910544F480339105CB
:1002700009F482C0C89709F038C189C0803591055A
:1002800009F489C08835910509F496C08834910530
:1002900009F02BC1AEC08839910509F413C1893921
:1002A0009105ECF48837910509F4ABC089379105C5
:1002B0004CF48836910509F4A4C08037910509F003
:1002C00014C19FC08838910509F4FCC0803991059C
:1002D00009F49DC08038910509F007C198C0803BA2
:1002E000910509F4C6C0813B91054CF4803A910513
:1002F00009F49FC0883A910509F0F7C0BAC0803C64
:10030000910509F4E3C0883C910509F4DFC0883BFE
:10031000910509F0EAC0C2C0809153018093BB00EF
:10032000CFC090917A0180917B01981768F49091E9
:100330007A01E92FF0E0E65AFE4F80818093BB00FE
:100340009F5F90937A01BCC080915401882309F487
:100350004BC085ED8093BC008091BC0084FDFCCF38
:10036000C2C080E28093BF0185ED8093BC00809184
:10037000BC0084FDFCCFB7C080E38093BF0185ED56
:100380008093BC008091BC0084FDFCCFACC088E3AE
:100390008093BF019BC080917A019091BB00E82FB0
:1003A000F0E0E65AFE4F90838F5F80937A01909140
:1003B0007A0180917B0182C080917A019091BB008B
:1003C000E82FF0E0E65AFE4F90838F5F80937A012A
:1003D00080915401882341F085ED8093BC00809189
:1003E000BC0084FDFCCF7FC081E08093550184EA8E
:1003F0006EC085ED8093BC008091BC0084FDFCCF75
:1004000072C083E0809352011092BE0159C0809166
:10041000BE01803208F056C08091BE019091BB00B1
:10042000E82FF0E0E256FE4F90838F5F8093BE018D
:1004300047C08091BE01803230F4E091BE01F0E00F
:10044000E256FE4F108285ED8093BC008091BC0087
:1004500084FDFCCF109252016091BE01E0915801E1
:10046000F09159018EE991E070E009951092BE017A
:100470002DC084E08093520110929C0110929D0146
:10048000E0915601F0915701099580919D018823D3
:1004900029F481E080939D0110927C0190919C0150
:1004A000E92FF0E0E458FE4F80818093BB009F5F0E
:1004B00090939C0190919C0180919D01981710F45C
:1004C00085EC01C085E88093BC000FC085EC80936B
:1004D000BC0009C01092BF0185ED8093BC008091E3
:1004E000BC0084FDFCCF10925201FF91EF91BF91AF
:1004F000AF919F918F917F916F915F914F913F91BC
:100500002F910F900FBE0F901F901895DF93CF93F0
:1005100000D000D0CDB7DEB79A8389837C836B830C
:10052000E981FA818B819C81938382830F900F9064
:100530000F900F90CF91DF910895DF93CF9300D06C
:10054000CDB7DEB79A838983E981FA818EE491E0A1
:1005500091838083E981FA81138212820F900F9038
:10056000CF91DF910895DF93CF9300D0CDB7DEB761
:100570009A83898389819A81E0DFE981FA818AE11E
:1005800091E091838083E981FA8188EE93E0A0E095
:10059000B0E084839583A683B7830F900F90CF91AB
:1005A000DF910895DF93CF9300D0CDB7DEB79A8364
:1005B000898389819A81D7DFE981FA818AE091E094
:1005C000918380830F900F90CF91DF910895DF93F7
:1005D000CF9300D0CDB7DEB79A8389838091E101B4
:1005E000282F30E08091E001882F90E0A901481B7E
:1005F000590BCA010F900F90CF91DF910895DF93AF
:10060000CF9300D000D0CDB7DEB79C838B838FEF24
:100610009FEF9A8389839091E0018091E10198177F
:1006200088F48091E001882F90E0FC01E054FE4FB7
:100630008081882F90E09A8389838091E0018F5F89
:100640008093E00189819A810F900F900F900F9015
:10065000CF91DF910895DF93CF9300D000D0CDB735
:10066000DEB79C838B838FEF9FEF9A838983909172
:10067000E0018091E101981760F48091E001882FFA
:1006800090E0FC01E054FE4F8081882F90E09A8337
:10069000898389819A810F900F900F900F90CF914D
:1006A000DF910895DF93CF9300D0CDB7DEB79A8363
:1006B00089830F900F90CF91DF910895DF93CF93AF
:1006C00000D000D0CDB7DEB79A8389837C836B835B
:1006D00089819A818130910549F48B819C812FEF2A
:1006E0008F3F920719F485E092E05CDF0F900F9046
:1006F0000F900F90CF91DF910895DF93CF93CDB7F7
:10070000DEB781E090E06FEF7FEFD8DFCF91DF9130
:100710000895DF93CF93CDB7DEB728970FB6F8943F
:10072000DEBF0FBECDBF9C838B837E836D835887D6
:100730004F8380910402882321F11A82198219C003
:10074000EB81FC810190F081E02D408151812D8170
:100750003E8189819A81F901E80FF91F20818B81FF
:100760009C81622FFA01099589819A8101969A8369
:10077000898329813A818F8198852817390700F369
:1007800005C02F818D819E81622F14DD8F81988518
:1007900028960FB6F894DEBF0FBECDBFCF91DF9184
:1007A0000895DF93CF9300D000D00F92CDB7DEB77E
:1007B0009A8389836B83809104028823F9F0809166
:1007C0000302803240F089819A8161E070E09EDE10
:1007D0001D821C821BC080910202882F90E02B8119
:1007E000FC01EE51FE4F2083809102028F5F8093C7
:1007F0000202809102028093030204C0CE0103969C
:1008000061E0D8DC81E090E09D838C838C819D81C8
:100810000F900F900F900F900F90CF91DF91089550
:10082000DF93CF9300D0CDB7DEB789836A830F9073
:100830000F90CF91DF910895DF93CF9300D00F9267
:10084000CDB7DEB79B838A8319828A819B812981F8
:1008500001972FEF8F3F9207D9F79B838A832983D4
:100860000F900F900F90CF91DF910895DF93CF936A
:1008700000D0CDB7DEB79A838983E981FA810684F7
:10088000F785E02D9081E981FA81858589230F9094
:100890000F90CF91DF910895DF93CF93CDB7DEB75F
:1008A00029970FB6F894DEBF0FBECDBF9D838C8312
:1008B0001B82EC81FD81838D86958170882361F098
:1008C0008C819D81D3DF88878885882311F081E022
:1008D000888788858F8308C08C819D81C7DF1F82B0
:1008E000882311F481E08F838F81882309F476C0F7
:1008F000EC81FD81838994899FDF8DE061E090DF49
:1009000081E08A8323C0EC81FD818589968994DF0B
:100910008DE061E085DF8A81809589838C819D816E
:10092000A5DF89878985882311F081E089878985FA
:10093000882329F08B819A81892B8B8304C08B813A
:10094000998189238B838A81880F8A838A8188236E
:10095000D1F6EC81FD818789908D6EDF8DE061E0BD
:100960005FDFEC81FD81838D86958170882319F08E
:100970008B8180958B8380915302882F90E0019624
:1009800020E430E0B9010E944F1F9C018091540285
:10099000882F90E01E822817390711F081E08E839E
:1009A0008E818823B1F080915302882F90E02B81B3
:1009B000FC01ED5EFD4F208380915302882F90E073
:1009C000019620E430E0B9010E944F1F809353024A
:1009D00005C0EC81FD81838D8160838F29960FB6E0
:1009E000F894DEBF0FBECDBFCF91DF910895DF93A6
:1009F000CF93CDB7DEB7809111029091120200978C
:100A000029F0809111029091120246DFCF91DF917F
:100A100008951F920F920FB60F9211242F933F93B8
:100A20004F935F936F937F938F939F93AF93BF93F6
:100A3000EF93FF93DF93CF93CDB7DEB7D8DFCF919E
:100A4000DF91FF91EF91BF91AF919F918F917F9136
:100A50006F915F914F913F912F910F900FBE0F902B
:100A60001F9018951F920F920FB60F9211242F937B
:100A70003F934F935F936F937F938F939F93AF9326
:100A8000BF93EF93FF93DF93CF93CDB7DEB7AFDF85
:100A9000CF91DF91FF91EF91BF91AF919F918F9196
:100AA0007F916F915F914F913F912F910F900FBE6A
:100AB0000F901F9018951F920F920FB60F9211244E
:100AC0002F933F934F935F936F937F938F939F9356
:100AD000AF93BF93EF93FF93DF93CF93CDB7DEB781
:100AE00086DFCF91DF91FF91EF91BF91AF919F9101
:100AF0008F917F916F915F914F913F912F910F90C7
:100B00000FBE0F901F901895DF93CF93CDB7DEB730
:100B10002B970FB6F894DEBF0FBECDBF9A838983A3
:100B20007C836B835E834D8389819A81FC01E658C7
:100B3000FD4F80811B86882314F421E02B878B8551
:100B4000882329F0EB81FC811182108270C02981F9
:100B50003A81C901880F991F820F931F880F991F2F
:100B6000880F991F9C0189819A81FC01E658FD4FED
:100B70008081992787FD9095280F391F8091550214
:100B8000882F90E02817390754F529813A81C90147
:100B9000880F991F820F931F880F991F880F991F25
:100BA0009C0189819A81FC01E658FD4F808199273B
:100BB00087FD9095280F391FC901880F991F820F53
:100BC000931FFC01EA5AFD4F808182958695869598
:100BD00083708170813019F421E02A8701C01A8660
:100BE0008A85882321F129813A81C901880F991FBB
:100BF000820F931F880F991F880F991F9C0189816D
:100C00009A81FC01E658FD4F8081992787FD9095D8
:100C1000280F391FC901880F991F820F931FFC01EC
:100C2000EA5AFD4F80818F7360E00E94DC1E2981AB
:100C30003A81F901E658FD4F80818F5FF901E6584E
:100C4000FD4F808329813A81C901880F991F820F46
:100C5000931F880F991F880F991F9C0189819A8182
:100C6000FC01E658FD4F8081992787FD9095280F5C
:100C7000391F80915502882F90E0281739075CF4BE
:100C800089819A81FC01E658FD4F80818C301CF4EB
:100C900081E0898701C019868985882309F47EC08F
:100CA000EB81FC814081518129813A81C901880F02
:100CB000991F820F931F880F991F880F991F9C01FE
:100CC00089819A81FC01E658FD4F8081992787FD33
:100CD0009095280F391FC901880F991F820F931F04
:100CE000FC01E95AFD4F80819181840F951FED81B0
:100CF000FE819183808329813A81C901880F991FE0
:100D0000820F931F880F991F880F991F9C0189815B
:100D10009A81FC01E658FD4F8081992787FD9095C7
:100D2000280F391FC901880F991F820F931FFC01DB
:100D3000EA5AFD4F808182958695869583708170F1
:100D40001886813011F421E028878885882309F4EA
:100D50004BC029813A81C901880F991F820F931FC7
:100D6000880F991F880F991F9C0189819A81FC0126
:100D7000E658FD4F8081992787FD9095280F391FF0
:100D8000C901880F991F820F931FFC01EA5AFD4F7A
:100D900080818F7361E00E94DC1E26C0EB81FC81A4
:100DA0008081918104961F822CE98034920710F48F
:100DB00081E08F832F81222339F0ED81FE8180E451
:100DC0009CE99183808309C0EB81FC8180819181C2
:100DD0000496ED81FE819183808389819A81FC0153
:100DE000E658FD4F8FEF80832B960FB6F894DEBF49
:100DF0000FBECDBFCF91DF9108951F920F920FB616
:100E00000F9211242F933F934F935F936F937F9390
:100E10008F939F93AF93BF93EF93FF93DF93CF9302
:100E2000CDB7DEB780E090E064E870E048E850E0DD
:100E30006BDECF91DF91FF91EF91BF91AF919F91C9
:100E40008F917F916F915F914F913F912F910F9073
:100E50000FBE0F901F901895DF93CF9300D0CDB7A2
:100E6000DEB79A838983E981FA8183850F900F9099
:100E7000CF91DF910895DF93CF9300D00F92CDB73C
:100E8000DEB79A8389836B83E981FA818B818583BD
:100E90000F900F900F90CF91DF910895DF93CF9334
:100EA00000D0CDB7DEB78983EEE4F0E0898180839E
:100EB000EDE4F0E080811A82882314F081E08A83D7
:100EC0008A818823A9F70F900F90CF91DF91089521
:100ED000DF93CF93CDB7DEB78FEFE0DFEEE4F0E046
:100EE0008081CF91DF910895DF93CF93CDB7DEB7A7
:100EF00029970FB6F894DEBF0FBECDBF9C838B83BE
:100F00007E836D830E94FB1DDC01CB019A83898364
:100F1000DFDF18868F3F11F481E08887888588237A
:100F200019F081E08F8315C00E94FB1DDC01CB010D
:100F30009C0189819A81281B390B19868D819E819C
:100F40002817390710F481E089878985882301F7FC
:100F50001F828F8129960FB6F894DEBF0FBECDBFDA
:100F6000CF91DF910895DF93CF9300D0CDB7DEB757
:100F70009A838983E981FA81848160E00E94DC1E82
:100F80000F900F90CF91DF910895DF93CF9300D012
:100F9000CDB7DEB79A838983E981FA81848161E0E4
:100FA0000E94DC1E0F900F90CF91DF910895DF9388
:100FB000CF93CDB7DEB72B970FB6F894DEBF0FBE39
:100FC000CDBF9C838B836D835F834E83EEE4F0E023
:100FD0008D8180831A82198234C0EDE4F0E0808133
:100FE0001B86882314F021E02B878B858823A9F7A3
:100FF000AEE4B0E02E813F8189819A81F901E80F4A
:10100000F91F80818C93EDE4F0E080811A868823BB
:1010100014F021E02A878A858823A9F7AEE4B0E09E
:1010200089819A819C012F5F3F4F8E819F81FC01B6
:10103000E20FF31F80818C9389819A8102969A83B3
:10104000898389819A8122E08030920730F2EDE431
:10105000F0E080811986882314F081E08987298552
:101060002223A9F78FEF1ADF8FEF18DF31DFEB8133
:10107000FC818287EB81FC818285882F90E08F71D3
:1010800090708530910549F08B819C8161E1F3DEA0
:101090008B819C817ADF188602C081E088878885F1
:1010A0002B960FB6F894DEBF0FBECDBFCF91DF9168
:1010B0000895DF93CF93CDB7DEB727970FB6F89497
:1010C000DEBF0FBECDBF9C838B830E94FB1DDC0166
:1010D000CB019A8389831AC00E94FB1DDC01CB01DE
:1010E0009C0189819A81A901481B590BCA011E8262
:1010F00051E08D32950710F081E08E832E812223FE
:1011000029F08B819C816FE0B6DE1CC0E1DEEB81B3
:10111000FC818287EB81FC8182851F828F3F11F4E5
:1011200041E04F835F815523B9F6EB81FC818285D5
:101130008E3F29F08B819C816DE09DDE03C081E0B4
:101140008D8304C08B819C8120DF1D828D81279639
:101150000FB6F894DEBF0FBECDBFCF91DF910895DB
:10116000DF93CF93CDB7DEB727970FB6F894DEBFE6
:101170000FBECDBF9A838983E981FA818681882356
:1011800009F43EC0EEE4F0E08FEF80830FC0EDE4A1
:10119000F0E080811C82882314F021E02C838C8174
:1011A0008823A9F7EEE4F0E08FEF8083E981FA81EC
:1011B000878190859E838D831F828D819E8122E011
:1011C0008130920710F481E08F838D819E8101969A
:1011D000E981FA81908787839F819923C1F6EDE4A5
:1011E000F0E080811B82882314F021E02B838B8127
:1011F0008823A9F789819A81C8DEE981FA8116825C
:1012000027960FB6F894DEBF0FBECDBFCF91DF910A
:101210000895DF93CF93CDB7DEB72B970FB6F89431
:10122000DEBF0FBECDBF9D838C836E832F83388737
:1012300049875A878C819D8193DF8C819D8193DEC4
:101240008C819D816CE271E04FDE8E81806426DEB0
:1012500088E18A8314C08A81282F332727FD30959F
:101260008F819885A985BA8504C0B695A79597956D
:1012700087952A95D2F712DE8A8188508A838A81DF
:1012800088234CF78FEF8B838E81882311F485E9B7
:101290008B838E81883011F487E88B838B81FEDD10
:1012A000198203C089818F5F898312DEEC81FD8101
:1012B0008287EC81FD818285882334F489818F3F88
:1012C00019F081E08B8701C01B868B85882351F73D
:1012D000EC81FD8182852B960FB6F894DEBF0FBEA0
:1012E000CDBFCF91DF910895DF93CF93CDB7DEB718
:1012F0002E970FB6F894DEBF0FBECDBF9A838983B9
:101300004B835C836D837E8338872F838B819C81A5
:10131000AD81BE810097A105B10529F489819A812B
:1013200062E1A9DD72C089819A8196DD1D868330D4
:1013300011F081E08D878D85882389F08B819C81D8
:10134000AD81BE81072E79E0880F991FAA1FBB1FB0
:101350007A95D1F7702D8B839C83AD83BE83898171
:101360009A812B813C814D815E8168E152DF8E87BD
:101370008E85882311F081E08E878E85882329F061
:1013800089819A8164E077DD40C089819A812F81CB
:1013900038856EEFA9010BDE1C86882311F481E0ED
:1013A0008C878C85882389F589819A8168E572E02C
:1013B0009BDD1B86882311F481E08B878B85882336
:1013C00029F089819A8165E156DD1FC089819A8162
:1013D0006DE020E030E040E050E01BDF882319F4AE
:1013E00077DD882319F081E08A8701C01A868A8513
:1013F000882329F089819A8164E13DDD06C08981D5
:101400009A81C3DD81E0898704C089819A81BDDD2D
:10141000198689852E960FB6F894DEBF0FBECDBF14
:10142000CF91DF910895EF92FF920F931F93DF9377
:10143000CF93CDB7DEB767970FB6F894DEBF0FBE78
:10144000CDBF9E838D834F83588769877A873C877A
:101450002B871E870D87F88AEF868D859E850097DE
:1014600019F421E02E8B06C18D859E852B853C8548
:10147000820F931F22E08130920708F0F7C0ED81C0
:10148000FE8186818823C9F0ED81FE812081318132
:10149000428153818F819885A985BA85281739079C
:1014A0004A075B0751F4ED81FE81278130858B85EA
:1014B0009C858217930708F050C0ED81FE818F81D3
:1014C0009885A985BA8580839183A283B3838D8112
:1014D0009E81C2DC1D8A833011F081E08D8B2D89C5
:1014E000222389F08F819885A985BA85072E79E016
:1014F000880F991FAA1FBB1F7A95D1F7702D8F8374
:101500009887A987BA878D819E812F8138854985E3
:101510005A8561E17EDE8F8B8F89882311F021E06F
:101520002F8B8F89882329F08D819E8163E0A3DC36
:101530009DC08D819E81BDDD1C8A882311F481E0D0
:101540008C8B2C89222309F091C0ED81FE811086BD
:101550001782ED81FE8181E08683EEE4F0E08FEF7B
:10156000808318C0EDE4F0E080811B8A882314F0AA
:1015700081E08B8B2B892223A9F7EEE4F0E08FEF3B
:101580008083ED81FE81878190850196ED81FE81CA
:1015900090878783ED81FE81278130858B859C85AF
:1015A00028173907F8F28D859E8501979C838B83D8
:1015B0001A8219821FC0EDE4F0E080811A8A882324
:1015C00014F081E08A8B2A892223A9F72F85388994
:1015D00089819A81D901A80FB91FEEE4F0E08081DA
:1015E0008C93EEE4F0E08FEF808389819A810196FD
:1015F0009A83898329813A818B819C8128173907B5
:10160000D0F2EDE4F0E08081198A882314F081E0C3
:10161000898B29892223A9F72F8538898B819C8181
:10162000D901A80FB91FEEE4F0E080818C93ED8121
:10163000FE81278130858D859E85820F931FED81E8
:10164000FE8190878783ED81FE818185882341F02B
:10165000ED81FE818781908522E08030920718F02D
:101660008D819E817DDD81E08E8B04C08D819E8188
:101670008CDC1E8A8E8967960FB6F894DEBF0FBE8B
:10168000CDBFCF91DF911F910F91FF90EF90089503
:10169000EF92FF920F931F93DF93CF93CDB7DEB7F7
:1016A00028970FB6F894DEBF0FBECDBF9A8389830B
:1016B0004B835C836D837E8338872F8389819A81F6
:1016C0002B813C814D815E81EF81F885BA01A901B2
:1016D00020E030E000E012E07F01A5DE28960FB6A2
:1016E000F894DEBF0FBECDBFCF91DF911F910F9158
:1016F000FF90EF900895DF93CF9300D0CDB7DEB782
:101700009A83898389819A810E949D02E981FA8165
:101710008AE291E091838083E981FA8115820F90BA
:101720000F90CF91DF910895DF93CF9300D00F9268
:10173000CDB7DEB79A838983E981FA8185811B82DF
:10174000823010F081E08B838B810F900F900F908F
:10175000CF91DF910895DF93CF9300D00F92CDB753
:10176000DEB79A838983E981FA8185811B82813082
:1017700011F481E08B838B810F900F900F90CF91AC
:10178000DF910895DF93CF9300D00F92CDB7DEB7EE
:101790009A838983E981FA8185818B838B81882370
:1017A00011F081E08B838B810F900F900F90CF9180
:1017B000DF910895DF93CF9300D000D000D0CDB754
:1017C000DEB79A8389834B835C836D837E838B81B1
:1017D0009C81AD81BE81072E79E0B695A79597953E
:1017E00087957A95D1F7702D982FE981FA818481B8
:1017F0008150892326960FB6F894DEBF0FBECDBF69
:10180000CF91DF910895AF92BF92CF92DF92EF9286
:10181000FF920F931F93DF93CF9300D000D000D09F
:10182000CDB7DEB79A8389834B835C836D837E83D8
:10183000E981FA81E684F784008911898B819C8192
:10184000AD81BE819C01AD012250304040405040EE
:10185000E981FA818585882F90E059016A0104C0E9
:10186000AA0CBB1CCC1CDD1C8A95D2F7D601C50185
:101870008E0D9F1DA01FB11FBC01CD0126960FB676
:10188000F894DEBF0FBECDBFCF91DF911F910F91B6
:10189000FF90EF90DF90CF90BF90AF900895DF93CF
:1018A000CF93CDB7DEB780917F04816080937F04B2
:1018B000CF91DF910895DF93CF93CDB7DEB72B970C
:1018C0000FB6F894DEBF0FBECDBF9A8389834B83DA
:1018D0005C836D837E83E981FA818789803149F455
:1018E00028EF3FEF40E050E02F83388749875A8741
:1018F00008C088EF9FEFAFEFBFE08F839887A9877D
:10190000BA871B868B819C81AD81BE812F813885F2
:1019100049855A8582179307A407B50710F031E06F
:101920003B878B852B960FB6F894DEBF0FBECDBFDD
:10193000CF91DF910895EF92FF920F931F93DF9362
:10194000CF93CDB7DEB762970FB6F894DEBF0FBE68
:10195000CDBF9A8789874B875C876D877E8789850E
:101960009A8510DF882379F0E985FA8523893489FF
:10197000458956898B859C85AD85BE852817390795
:101980004A075B0718F401E00A8B01C01A8A8A89AA
:10199000882311F0198AE6C0E985FA8585818230AD
:1019A00069F4E985FA858B859C85AD85BE8582873E
:1019B0009387A487B58711E0198BD4C08B859C854C
:1019C000AD85BE850097A105B10579F4E985FA8555
:1019D0001682178210861186E985FA85128613868B
:1019E0001486158681E0898BBDC0E985FA858285DC
:1019F0009385A485B5859C01AD01215030404040C0
:101A00005040E985FA85038CF48DE02D8585882F7B
:101A100090E0099679018A0104C016950795F7941C
:101A2000E7948A95D2F7D801C7018D839E83AF834F
:101A3000B8878B859C85AD85BE859C01AD01215005
:101A4000304040405040E985FA85038CF48DE02D0C
:101A50008585882F90E0099679018A0104C0169542
:101A60000795F794E7948A95D2F7D801C70189833F
:101A70009A83AB83BC8329813A814B815C818D81C0
:101A80009E81AF81B885281739074A075B0750F058
:101A9000E985FA8582859385A485B5850097A1059A
:101AA000B10569F4E985FA858789908DA18DB28D9C
:101AB000E985FA8586839783A087B1872EC08981BF
:101AC0009A81AB81BC812D813E814F815885821BDB
:101AD000930BA40BB50B89839A83AB83BC831DC086
:101AE000E985FA85638D748DE985FA8526813781CC
:101AF0004085518589859A85FC013696CB01BA01CE
:101B0000A9019F01C7D51F86882311F401E00F8723
:101B10001F85112311F0198A25C0188A89819A819D
:101B2000AB81BC810097A105B10511F081E0888BE4
:101B300089819A81AB81BC810197A109B10989830F
:101B40009A83AB83BC83E888EE2051F6E985FA8559
:101B50008B859C85AD85BE8582879387A487B58755
:101B600001E0098B898962960FB6F894DEBF0FBE3B
:101B7000CDBFCF91DF911F910F91FF90EF9008950E
:101B8000DF93CF9300D0CDB7DEB79A838983E98105
:101B9000FA81238934894589568989819A81BA01D4
:101BA000A901C9DE0F900F90CF91DF910895DF93C7
:101BB000CF9300D000D000D0CDB7DEB79A83898311
:101BC0006B83E981FA8186859785A089B189BC01FB
:101BD000CD014B810ED41E82882311F421E02E8387
:101BE0003E81332319F01D821C8212C0E981FA81E3
:101BF0008289882F90E0880F991F82959295907F17
:101C00009827807F98279C0123583D4F3D832C8344
:101C10008C819D8126960FB6F894DEBF0FBECDBF96
:101C2000CF91DF910895DF93CF93CDB7DEB727979C
:101C30000FB6F894DEBF0FBECDBF9C838B838B8124
:101C40009C81A0DD1F82882311F481E08F838F8126
:101C5000882311F01E8268C0EB81FC818481882377
:101C60000CF060C08B819C8161E0A1DF9A83898345
:101C700089819A81009711F41E8256C08B819C81C4
:101C800053DD1D82882311F481E08D838D818823AB
:101C900061F0EB81FC8183899489A589B689E9810A
:101CA000FA81848F958FA68FB78FEB81FC8187890E
:101CB000908DA18DB28DE981FA81938F828FEB8116
:101CC000FC818789908DA18DB28DCD01AA27BB277C
:101CD000E981FA81958B848B80917B0290917C02C3
:101CE0000097C9F0E0917B02F0917C0289819A8192
:101CF000AC01485E5F4F89819A819C012A5E3F4F0B
:101D0000CA01B9010995E981FA81808D918DE98136
:101D1000FA81938B828BEB81FC8184818F77EB81BD
:101D2000FC81848302D38E838E8127960FB6F8942C
:101D3000DEBF0FBECDBFCF91DF910895DF93CF936C
:101D4000CDB7DEB728970FB6F894DEBF0FBECDBF74
:101D50009A8389834B835C836D837E8338872F834B
:101D600080917D0490917E042B813C814D815E8128
:101D7000EF81F885BA01A9019F01B6DA28960FB65E
:101D8000F894DEBF0FBECDBFCF91DF9108950F93C2
:101D90001F93DF93CF9300D000D000D0CDB7DEB734
:101DA0009A8389834B835C836D837E8389819A8147
:101DB0002B813C814D815E81BA01A9010FEF1FEF9C
:101DC0002FEF3FE077D326960FB6F894DEBF0FBE15
:101DD000CDBFCF91DF911F910F910895DF93CF93E6
:101DE00000D000D0CDB7DEB79A838983E981FA812C
:101DF000238D348D89819A81FC013696C90141E099
:101E000050E060E070E09F0112D51C82882311F43D
:101E100081E08C838C81882311F01B821FC0E981B3
:101E2000FA818789908DA18DB28D0097A105B105AA
:101E300099F4E981FA8186819781A085B185E9814C
:101E4000FA81878B908FA18FB28FE981FA8184818B
:101E50008068E981FA81848381E08B838B810F9094
:101E60000F900F900F90CF91DF910895DF93CF9354
:101E7000CDB7DEB7A7970FB6F894DEBF0FBECDBFC4
:101E80009F8B8E8B798F688F5B8F4A8F888D998D12
:101E9000998B888B8A8D9B8D9F878E878E899F8952
:101EA0005ADC882349F0EE89FF898481882F90E0ED
:101EB00082709070009719F421E02EA301C01EA239
:101EC0008EA1882309F006C2EE89FF898481882FBC
:101ED00090E084709070009709F4A8C1EE89FF89A2
:101EE0002285338544855585EE89FF8983899489C8
:101EF000A589B689281739074A075B0709F496C1EF
:101F00008E899F893DDE1DA2882311F441E04DA3F7
:101F10005DA1552309F0DEC189C1EE89FF89838D5A
:101F2000948DEE89FF892285338544855585BA01D4
:101F3000A90140DC8D87EE89FF8982859385A48580
:101F4000B58591709C878B878D85882309F079C032
:101F50008B859C85009709F074C0EE89FF89868186
:101F60009781A085B1850097A105B10521F5EE897E
:101F7000FF898789908DA18DB28D0097A105B1054C
:101F800069F48E899F892ADF1CA2882311F481E0DD
:101F90008CA39CA1992309F09DC153C0EE89FF89B0
:101FA0008789908DA18DB28DEE89FF898683978375
:101FB000A087B18746C0EE89FF89838D948DEE8915
:101FC000FF892681378140855185FE017296BA01CD
:101FD000A9019F015FD31BA2882311F421E02BA349
:101FE0004BA1442319F01AA219A27CC1EE89FF89E2
:101FF000838D948D2A893B894C895D89BA01A90119
:102000005ADC8FA35FA1552311F081E08FA38FA12C
:10201000882369F08E899F89E1DE18A2882311F454
:1020200091E098A328A1222309F054C10AC08A890B
:102030009B89AC89BD89EE89FF8986839783A087B8
:10204000B18720E032E08B859C85A901481B590BA4
:10205000CA019A87898729853A858E859F85821747
:10206000930720F48E859F859A878987EE89FF895B
:10207000838D948DEE89FF89268137814085518536
:10208000BA01A901C0DB9B01AC018D85882F90E0CE
:10209000A0E0B0E0820F931FA41FB51F8D839E8325
:1020A000AF83B88789859A8552E080309507D9F546
:1020B00020910201309103014091040150910501EA
:1020C0008D819E81AF81B885281739074A075B0744
:1020D00061F48FEF9FEFAFEFBFEF8093020190931A
:1020E0000301A0930401B0930501EE89FF89838D5C
:1020F000948D2D813E814F815885E889F989BA01F7
:10210000A9019F011BDE1F8E882311F481E08F8FB0
:102110009F8D992309F0DEC08889998980509E4F50
:10212000998B888B64C08B859C85009749F5EE89D7
:10213000FF892285338544855585EE89FF8983890A
:102140009489A589B689281739074A075B07C0F023
:10215000ECD01E8E882311F421E02E8F4E8D442367
:1021600009F0B8C08D819E81AF81B885809302014E
:1021700090930301A0930401B093050190DB11C07B
:102180008D819E81AF81B885BC01CD0141E031D107
:102190001D8E882311F451E05D8F8D8D882309F009
:1021A00099C08B859C8583589D4F9C838B832B8105
:1021B0003C8189859A85820F931F9A83898310C0F9
:1021C000E889F9898081EB81FC8180838B819C8106
:1021D00001969C838B83888999890196998B888B3A
:1021E0002B813C8189819A812817390749F72E85EF
:1021F0003F8589859A85A901481B590BCA019F878C
:102200008E87EE89FF8922853385448555858985AA
:102210009A85CC01A0E0B0E0820F931FA41FB51FE8
:10222000EE89FF8982879387A487B5878E859F85EE
:10223000009709F072CEEE89FF89228533854485A7
:102240005585EE89FF8983899489A589B689821786
:102250009307A407B507A0F4EE89FF8982859385CB
:10226000A485B585EE89FF89838B948BA58BB68B6E
:10227000EE89FF8984818068EE89FF89848311C09B
:1022800080917B0290917C02009759F08A8D9B8D02
:10229000009739F0EE89FF8984818068EE89FF8993
:1022A0008483EE89FF898481882F90E08870907004
:1022B000009759F08E899F89B6DC1C8E882311F413
:1022C00051E05C8F8C8D882329F44A8D5B8D5AA355
:1022D00049A308C08E899F8961E070E00E94860250
:1022E0001AA219A289A19AA1A7960FB6F894DEBFE7
:1022F0000FBECDBFCF91DF910895DF93CF9300D074
:102300000F92CDB7DEB79A8389836B8389819A81D7
:102310009E012D5F3F4FB90141E050E0A7DD0F90D6
:102320000F900F90CF91DF910895DF93CF9300D05E
:102330000F92CDB7DEB780917F04882309F450C097
:1023400080917D0490917E042091020130910301DF
:102350004091040150910501EDE7F2E0BA01A901B5
:102360009F010E9474091B82882311F481E08B83F2
:102370008B81882311F01A8235C08091800490915E
:102380008104A0918204B09183040097A105B10556
:1023900029F180917D0490917E04209180043091F8
:1023A00081044091820450918304EDE7F2E0BA0188
:1023B000A9019F010E9474091982882311F481E008
:1023C00089838981882311F01A820CC010928004BD
:1023D00010928104109282041092830410927F0460
:1023E00081E08A838A810F900F900F90CF91DF91C7
:1023F0000895DF93CF93CDB7DEB728970FB6F89443
:10240000DEBF0FBECDBF69837A838B839C834D83F0
:102410002091020130910301409104015091050186
:1024200089819A81AB81BC81281739074A075B07EC
:1024300079F17BDF1886882311F481E0888788850D
:10244000882311F01F822CC080917D0490917E041E
:1024500029813A814B815C81EDE7F2E0BA01A90163
:102460009F0116D91E82882311F481E08E838E810C
:10247000882311F01F8214C089819A81AB81BC81AD
:102480008093020190930301A0930401B09305018E
:1024900080917F049D81892B80937F0481E08F83CD
:1024A0008F8128960FB6F894DEBF0FBECDBFCF91B7
:1024B000DF9108950F931F93DF93CF93CDB7DEB7CE
:1024C00064970FB6F894DEBF0FBECDBF9E838D8399
:1024D0004F83588769877A870B871C872D873E87AC
:1024E0008F819885A985BA8582309105A105B105AE
:1024F00010F41C8AC3C0ED81FE8181859285A3857D
:10250000B4859C01AD012F5F3F4F4F4F5F4F8F81CF
:102510009885A985BA85281739074A075B0710F4FB
:102520001C8AACC0ED81FE8183899489A589B68916
:1025300089839A83AB83BC83ED81FE818789803157
:1025400069F48F819885A985BA85292F3A2F4B2F59
:102550005527288B398B4A8B5B8B12C08F819885CE
:10256000A985BA859C01AD01689416F856954795E2
:10257000379527951694D1F7288B398B4A8B5B8B2F
:1025800089819A81AB81BC81288939894A895B8993
:10259000820F931FA41FB51F89839A83AB83BC83CB
:1025A00020910201309103014091040150910501F5
:1025B00089819A81AB81BC8182179307A407B507F3
:1025C00091F089819A81AB81BC81BC01CD0140E051
:1025D00010DF1F86882311F431E03F874F854423A5
:1025E00011F01C8A4BC0ED81FE818789803189F40E
:1025F0008F819885A985BA859070A070B0702B8561
:102600003C85880F991FFC01E358FD4F31832083DF
:1026100017C08F819885A985BA858F779070A07033
:10262000B070880F991F880F991FFC01E358FD4F68
:102630008B859C85AD85BE8580839183A283B38382
:102640002ED9ED81FE8182898230B0F0ED81FE814C
:10265000258136814781508589819A81AB81BC81F2
:10266000820F931FA41FB51F809380049093810451
:10267000A0938204B093830451E05C8B8C896496B0
:102680000FB6F894DEBF0FBECDBFCF91DF911F9183
:102690000F910895DF93CF93CDB7DEB762970FB652
:1026A000F894DEBF0FBECDBF9E838D834F835887C6
:1026B00069877A873C872B87ED81FE8181859285AA
:1026C000A385B4859C01AD012F5F3F4F4F4F5F4FF6
:1026D0008F819885A985BA85281739074A075B072E
:1026E00010F41A8A9AC0ED81FE8183899489A589A4
:1026F000B68989839A83AB83BC83ED81FE81878908
:10270000803169F48F819885A985BA85292F3A2F60
:102710004B2F55272E873F87488B598B12C08F81AF
:102720009885A985BA859C01AD01689416F85695DF
:102730004795379527951694D1F72E873F87488B75
:10274000598B89819A81AB81BC812E853F854889CF
:102750005989820F931FA41FB51F89839A83AB8366
:10276000BC832091020130910301409104015091FA
:10277000050189819A81AB81BC8182179307A407E7
:10278000B50791F089819A81AB81BC81BC01CD01F3
:1027900040E02FDE1D86882311F431E03D874D8512
:1027A000442311F01A8A39C0ED81FE818789803176
:1027B000C1F48F819885A985BA859070A070B0709A
:1027C000880F991FFC01E358FD4F80819181CC0156
:1027D000A0E0B0E0EB85FC8580839183A283B38386
:1027E0001AC08F819885A985BA858F779070A0705F
:1027F000B070880F991F880F991FFC01E358FD4F97
:1028000080819181A281B381BF70EB85FC8580833B
:102810009183A283B38351E05A8B8A8962960FB663
:10282000F894DEBF0FBECDBFCF91DF910895EF9238
:10283000FF920F931F93DF93CF93CDB7DEB7A2978D
:102840000FB6F894DEBF0FBECDBF9F8B8E8B488F27
:10285000598F6A8F7B8F3D8F2C8FEC8DFD8D808102
:102860009181A281B3810097A105B10579F0EC8D2A
:10287000FD8D80819181A281B3810196A11DB11D41
:102880008E879F87A88BB98B1D8616C0EE89FF891E
:1028900080819181A281B3818E879F87A88BB98B1C
:1028A0001D86888D998DAA8DBB8D81309105A105DE
:1028B000B10511F481E08D878E859F85A889B9893E
:1028C00089879A87AB87BC87EE89FF898185928546
:1028D000A385B4850196A11DB11D8D839E83AF8311
:1028E000B88719821A821B821C82EE89FF89218592
:1028F00032854385548589819A81AB81BC81821759
:102900009307A407B50710F01AA200C129853A85DC
:102910004B855C858D819E81AF81B8858217930739
:10292000A407B50780F482E090E0A0E0B0E08987DA
:102930009A87AB87BC8789859A85AB85BC858E874E
:102940009F87A88BB98B8E899F8929853A854B856E
:102950005C85FE017296BA01A9019F019BDE19A256
:10296000882311F401E009A319A1112311F01AA27F
:10297000CDC08A899B89AC89BD890097A105B10525
:1029800061F089859A85AB85BC850196A11DB11D35
:102990008E879F87A88BB98B1FC029853A854B8569
:1029A0005C858E859F85A889B98979018A01E81A95
:1029B000F90A0A0B1B0BD801C7019C01AD012F5F5F
:1029C0003F4F4F4F5F4F888D998DAA8DBB8D281734
:1029D00039074A075B07B9F089819A81AB81BC81CD
:1029E0000196A11DB11D89839A83AB83BC83898520
:1029F0009A85AB85BC850196A11DB11D89879A87F3
:102A0000AB87BC8772CF8E899F8929853A854B8594
:102A10005C85BA01A901BBD918A2882311F401E091
:102A200008A318A1112341F11AA270C089859A85C3
:102A3000AB85BC85AC01BD01415050406040704049
:102A40008E899F8909851A852B853C8533DD1F8EEC
:102A5000882311F481E08F8FEF8CEE2011F01AA201
:102A600055C089859A85AB85BC850197A109B109B7
:102A700089879A87AB87BC8729853A854B855C8592
:102A80008E859F85A889B98982179307A407B50702
:102A900068F2EC8DFD8D80819181A281B3810097D8
:102AA000A105B105B9F0EC8DFD8D408151816281A8
:102AB00073818E899F890E851F8528893989FADC63
:102AC0001E8E882311F401E00E8F1E8D112311F04C
:102AD0001AA21CC0EC8DFD8D8E859F85A889B989B1
:102AE00080839183A283B3838D85882369F08E854B
:102AF0009F85A889B9890196A11DB11DEE89FF891D
:102B000080839183A283B38381E08AA38AA1A29662
:102B10000FB6F894DEBF0FBECDBFCF91DF911F91EE
:102B20000F91FF90EF900895DF93CF9300D0CDB732
:102B3000DEB79A838983E981FA811582E981FA8176
:102B40001682E981FA811186E981FA8113860F9054
:102B50000F90CF91DF910895DF93CF9300D0CDB741
:102B6000DEB79A838983E981FA8182E090E0A0E070
:102B7000B0E080839183A283B383E981FA81178ACD
:102B80000F900F90CF91DF910895DF93CF9300D0F6
:102B9000CDB7DEB79A83898389819A81C5DF898120
:102BA0009A810C96D9DF89819A818A960E947B0B43
:102BB0000F900F90CF91DF910895DF93CF9300D0C6
:102BC00000D0CDB7DEB79A8389837C836B838981FC
:102BD0009A818130910549F48B819C812FEF8F3F41
:102BE000920719F484E894E0D0DF0F900F900F90D3
:102BF0000F90CF91DF910895DF93CF93CDB7DEB7DC
:102C000081E090E06FEF7FEFD8DFCF91DF91089503
:102C1000DF93CF9300D00F92CDB7DEB79B838A832B
:102C2000EA81FB811582EA81FB811682EA81FB81C0
:102C3000178219820DC08981282F30E08A819B81FB
:102C4000820F931FFC013896108289818F5F8983E0
:102C50008981803280F3EA81FB8110A6EA81FB81C1
:102C600012A611A6EA81FB8185A996A9009731F0E9
:102C7000EA81FB8105A8F6A9E02D09950F900F9038
:102C80000F90CF91DF910895DF93CF9300D000D0C4
:102C9000CDB7DEB79A8389837C836B83E981FA8120
:102CA0008B819C8191838083E981FA811282898161
:102CB0009A81AEDF0F900F900F900F90CF91DF9120
:102CC0000895DF93CF9300D000D0CDB7DEB79A83BD
:102CD00089837C836B8389819A818130910561F43A
:102CE0008B819C812FEF8F3F920731F48DEC94E024
:102CF0002CEB35E0B901C8DF0F900F900F900F90CB
:102D0000CF91DF910895DF93CF93CDB7DEB781E008
:102D100090E06FEF7FEFD5DFCF91DF9108950F93B4
:102D2000DF93CF9300D000D0CDB7DEB79A838983ED
:102D30007C836B8389819A818130910569F48B81D1
:102D40009C812FEF8F3F920739F488E095E060E097
:102D500040E020E000E0A1D40F900F900F900F9082
:102D6000CF91DF910F910895DF93CF93CDB7DEB769
:102D700081E090E06FEF7FEFD2DFCF91DF91089598
:102D80000F93DF93CF9300D000D0CDB7DEB79A83F7
:102D900089837C836B8389819A818130910569F471
:102DA0008B819C812FEF8F3F920739F48EE095E065
:102DB00060E040E020E000E070D40F900F900F90B2
:102DC0000F90CF91DF910F910895DF93CF93CDB7FF
:102DD000DEB781E090E06FEF7FEFD2DFCF91DF9140
:102DE0000895DF93CF9300D0CDB7DEB79A83898360
:102DF00089819A810DD50F900F90CF91DF91089521
:102E00000F93DF93CF9300D000D0CDB7DEB79A8376
:102E100089837C836B8389819A818130910581F4D8
:102E20008B819C812FEF8F3F920751F48CE195E0CD
:102E300060E040E020E000E030D484E195E0D1DFC4
:102E40000F900F900F900F90CF91DF910F910895F9
:102E5000DF93CF93CDB7DEB781E090E06FEF7FEFE8
:102E6000CFDFCF91DF9108950F93DF93CF9300D001
:102E700000D0CDB7DEB79A8389837C836B83898149
:102E80009A818130910569F48B819C812FEF8F3F6E
:102E9000920739F482E295E060E040E020E000E053
:102EA000FCD30F900F900F900F90CF91DF910F9167
:102EB0000895DF93CF93CDB7DEB781E090E06FEF59
:102EC0007FEFD2DFCF91DF9108950F93DF93CF9300
:102ED00000D000D0CDB7DEB79A8389837C836B8323
:102EE00089819A818130910569F48B819C812FEFD2
:102EF0008F3F920739F488E295E060E040E020E0FF
:102F000000E0CBD30F900F900F900F90CF91DF91F7
:102F10000F910895DF93CF93CDB7DEB781E090E0B6
:102F20006FEF7FEFD2DFCF91DF9108950F93DF93A3
:102F3000CF9300D000D0CDB7DEB79A8389837C834E
:102F40006B8389819A818130910569F48B819C81A1
:102F50002FEF8F3F920739F48EE295E060E040E07A
:102F600020E000E09AD30F900F900F900F90CF9138
:102F7000DF910F910895DF93CF93CDB7DEB781E056
:102F800090E06FEF7FEFD2DFCF91DF910895DF9375
:102F9000CF9300D000D000D0CDB7DEB78B837D8338
:102FA0006C838C819D81FC01E05CFF4F808191816D
:102FB00001968F7390709A83898329813A818C81DD
:102FC0009D81FC01EE5BFF4F808191811E8228175D
:102FD000390711F081E08E838E818823B9F08C81CE
:102FE0009D81FC01E05CFF4F208131818C819D81BE
:102FF000FC01E20FF31F8B81808329813A818C8150
:103000009D81FC01E05CFF4F3183208326960FB643
:10301000F894DEBF0FBECDBFCF91DF910895DF934F
:10302000CF93CDB7DEB7CF91DF9108951F920F9266
:103030000FB60F9211242F933F934F935F936F938B
:103040007F938F939F93AF93BF93EF93FF93DF9300
:10305000CF9300D00F92CDB7DEB7E0ECF0E08081E7
:10306000882F90E0847090701B82009711F481E0AB
:103070008B838B81882351F0E6ECF0E080818A839A
:1030800024E335E08A81B90182DF04C0E6ECF0E098
:10309000808189830F900F900F90CF91DF91FF91E6
:1030A000EF91BF91AF919F918F917F916F915F91C0
:1030B0004F913F912F910F900FBE0F901F90189539
:1030C0001F920F920FB60F9211242F933F938F935D
:1030D0009F93AF93BF93EF93FF93DF93CF9300D072
:1030E000CDB7DEB72091B8053091B9058091BA050A
:1030F0009091BB051A822817390711F481E08A8361
:103100008A81882341F0A1ECB0E0E1ECF0E080811D
:103110008F7D8C9318C08091BA059091BB05FC01FE
:10312000E858FA4F808189838091BA059091BB0558
:1031300001968F7390709093BB058093BA05E6EC6F
:10314000F0E0898180830F900F90CF91DF91FF9104
:10315000EF91BF91AF919F918F913F912F910F90E0
:103160000FBE0F901F9018958F929F92AF92BF92B3
:10317000CF92DF92EF92FF920F931F93DF93CF9343
:10318000CDB7DEB762970FB6F894DEBF0FBECDBFE6
:103190009A8389837C836B835E834D8338872F83F7
:1031A0001A870987FC86EB86DE86CD86B88AAF86CD
:1031B0009A8A898A89819A810E94B302E981FA8177
:1031C00088E391E091838083E981FA818B819C81FE
:1031D00095878487E981FA818D819E81978786878B
:1031E000E981FA818F819885918B808BE981FA81C1
:1031F00089859A85938B828BE981FA818B859C8561
:10320000958B848BE981FA818D859E85978B868B42
:10321000E981FA818F859889918F808FE981FA8180
:1032200089899A89938F828FE981FA8189A1848F14
:10323000E981FA818AA1858FE981FA818BA1868F44
:10324000E981FA818CA1878FE981FA818DA180A320
:1032500062960FB6F894DEBF0FBECDBFCF91DF915F
:103260001F910F91FF90EF90DF90CF90BF90AF90A4
:103270009F908F900895DF93CF9300D0CDB7DEB7A6
:103280009A838983E981FA8184859585FC01E05CD4
:10329000FF4F20813181E981FA8184859585FC0188
:1032A000EE5BFF4F80819181A901481B590BCA0138
:1032B000805C9F4F8F7390700F900F90CF91DF9134
:1032C0000895DF93CF930F92CDB7DEB78CEB95E0E7
:1032D000D2DF1982009711F081E0898389818823E8
:1032E00009F09DDE0F90CF91DF910895DF93CF938A
:1032F00000D000D00F92CDB7DEB79A838983E981E1
:10330000FA8184859585FC01E05CFF4F2081318145
:10331000E981FA8184859585FC01EE5BFF4F808110
:1033200091811D822817390711F421E02D833D81F9
:10333000332329F08FEF9FEF9C838B8315C0E981A6
:10334000FA8124853585E981FA8184859585FC019A
:10335000EE5BFF4F80819181F901E80FF91F8081B9
:10336000282F30E03C832B838B819C810F900F9022
:103370000F900F900F90CF91DF910895DF93CF932F
:1033800000D000D000D0CDB7DEB79B838A83EA811E
:10339000FB8184859585FC01E05CFF4F20813181B4
:1033A000EA81FB8184859585FC01EE5BFF4F80817E
:1033B00091811E822817390711F421E02E833E8166
:1033C000332329F08FEF9FEF9D838C832CC0EA81FC
:1033D000FB8124853585EA81FB8184859585FC0107
:1033E000EE5BFF4F80819181F901E80FF91F808129
:1033F0008983EA81FB8124853585EA81FB81848587
:103400009585FC01EE5BFF4F8081918101968F7362
:103410009070F901EE5BFF4F918380838981282FA3
:1034200030E03D832C838C819D8126960FB6F894E5
:10343000DEBF0FBECDBFCF91DF910895DF93CF9355
:1034400000D00F92CDB7DEB79A838983E981FA81E4
:1034500091A181E08927882379F4E981FA810488A0
:10346000F589E02D8081882F90E08074907000971E
:1034700019F481E08B8301C01B828B81882331F793
:10348000E981FA8111A20F900F900F90CF91DF91F7
:103490000895DF93CF9300D000D000D0CDB7DEB732
:1034A0009C838B836D83EB81FC8186859785FC01F2
:1034B000E05CFF4F8081918101968F7390709A83B9
:1034C000898329813A81EB81FC8186859785FC017E
:1034D000EE5BFF4F808191811E822817390711F41E
:1034E00081E08E838E81882361F7EB81FC812685C4
:1034F0003785EB81FC8186859785FC01E05CFF4F79
:1035000080819181F901E80FF91F8D818083EB8122
:10351000FC818685978529813A81FC01E05CFF4F1B
:1035200031832083EB81FC81A689B789EB81FC8103
:103530000688F789E02D8081482FEB81FC81878DFB
:10354000282F30E081E090E0022E02C0880F991F02
:103550000A94E2F7842B8C93EB81FC8181E081A3B8
:10356000EB81FC81A489B589EB81FC810488F58914
:10357000E02D808180648C9381E090E026960FB6E8
:10358000F894DEBF0FBECDBFCF91DF9108958F922B
:103590009F92AF92BF92CF92DF92EF92FF920F93E2
:1035A0001F93DF93CF9300D000D0CDB7DEB79A83BF
:1035B00089837C836B8389819A818130910509F0AD
:1035C0003DC08B819C812FEF8F3F9207B9F500D0D2
:1035D00000D00F92EDB7FEB731962CEB35E044E307
:1035E00055E0A8E7B5E084E0808383E0818387E04D
:1035F000828385E0838381E08483C901BA01AD01C0
:1036000025EC30E004EC10E00F2EF0ECEF2EFF2460
:10361000F02D0F2EF1ECCF2EDD24F02D0F2EF2EC3D
:10362000AF2EBB24F02D0F2EF6EC8F2E9924F02D0B
:103630009BDD0F900F900F900F900F900F900F90B9
:103640000F900F90CF91DF911F910F91FF90EF900E
:10365000DF90CF90BF90AF909F908F900895DF93B1
:10366000CF93CDB7DEB781E090E06FEF7FEF8FDFD4
:10367000CF91DF910895DF93CF9300D0CDB7DEB720
:103680009A838983E981FA8182E391E0918380833F
:103690000F900F90CF91DF9108950F93DF93CF9309
:1036A00000D000D000D0CDB7DEB79A8389836B837A
:1036B0004C832D830E8389819A81DDDFE981FA8134
:1036C00088E491E091838083E981FA818B81828310
:1036D000E981FA818C818383E981FA818D818483F8
:1036E000E981FA818E81858326960FB6F894DEBF34
:1036F0000FBECDBFCF91DF910F9108950F93DF9350
:10370000CF9300D000D0CDB7DEB79A8389837C8376
:103710006B8389819A818130910569F48B819C81C9
:103720002FEF8F3F920739F48EED95E060E040E097
:1037300020E000E0B2DF0F900F900F900F90CF913C
:10374000DF910F910895DF93CF93CDB7DEB781E07E
:1037500090E06FEF7FEFD2DFCF91DF910895DF939D
:10376000CF93CDB7DEB728970FB6F894DEBF0FBE64
:10377000CDBF9E838D8378876F831C821B821A82C4
:10378000198226C029813A818D819E81820F931FE3
:10379000FC01329620818F819885622F4AE050E0AB
:1037A000ABD19C018B819C81820F931F9C838B8367
:1037B0008F8198856EE292D09C018B819C81820FD3
:1037C000931F9C838B8389819A8101969A83898335
:1037D00089819A8183309105ACF2ED81FE8125814A
:1037E0008F819885622F4AE050E086D19C018B81C1
:1037F0009C81820F931F9C838B838B819C81289655
:103800000FB6F894DEBF0FBECDBFCF91DF91089504
:10381000DF93CF9300D0CDB7DEB79A8389838981B8
:103820009A8129DFE981FA8188E491E0918380839C
:1038300089819A81029660E070E044E050E00E9445
:1038400095000F900F90CF91DF910895DF93CF9364
:10385000CDB7DEB729970FB6F894DEBF0FBECDBF48
:103860009C838B837E836D8358874F831A82198252
:103870001BC0EB81FC810190F081E02D2081318122
:10388000ED81FE8140818D819E8101969E838D8395
:103890008B819C81642FF90109959C0189819A8112
:1038A000820F931F9A83898319868F819885009749
:1038B00011F081E089878F819885019798878F83A0
:1038C00089858823B1F689819A8129960FB6F89463
:1038D000DEBF0FBECDBFCF91DF910895DF93CF93B1
:1038E00000D00F92CDB7DEB79A8389836B83E981CD
:1038F000FA810190F081E02D0190F081E02D2B8183
:1039000089819A81622F09950F900F900F90CF9126
:10391000DF910895EF92FF920F931F93DF93CF9360
:1039200000D000D000D0CDB7DEB79A8389837C83E6
:103930006B838B819C81009719F41E821D8217C0B6
:10394000E981FA8180819181FC013296E080F180E9
:103950000B811C818B819C810E949C009C01898130
:103960009A81B801A901F70109959E838D838D8104
:103970009E8126960FB6F894DEBF0FBECDBFCF91C5
:10398000DF911F910F91FF90EF9008951F93DF93A8
:10399000CF93CDB7DEB7E0970FB6F894DEBF0FBE7A
:1039A000CDBF9AA789A74BA75CA76DA77EA72FA716
:1039B000CE01089680969F838E83EE81FF811082D0
:1039C0008FA5823010F48AE08FA78BA59CA5ADA5AA
:1039D000BEA58A839B83AC83BD838FA5282F30E04F
:1039E00040E050E08BA59CA5ADA5BEA5BC01CD01D6
:1039F00069D2DA01C9018BA79CA7ADA7BEA71A811E
:103A00008FA5882F90E0A0E0B0E02BA53CA54DA5A8
:103A10005EA5BC01CD0124D2DC01CB01912F981B06
:103A2000892F89838E819F8101979F838E838981CE
:103A30008A3024F48981805D88AB03C08981895CE8
:103A400088ABEE81FF8188A980838BA59CA5ADA55D
:103A5000BEA50097A105B10509F0B7CF89A59AA524
:103A60002E813F81B90156DFE0960FB6F894DEBF94
:103A70000FBECDBFCF91DF911F910895DF93CF93FC
:103A8000CDB7DEB72A970FB6F894DEBF0FBECDBF15
:103A90009A8389834B835C836D837E8338872F83EE
:103AA0008F819885009781F4E981FA810190F081F6
:103AB000E02D0190F081E02D2B8189819A81622F88
:103AC00009959A8789870DC0EF8189819A812B8119
:103AD0003C814D815E81BA01A9012E2F57DF9A8763
:103AE000898789859A852A960FB6F894DEBF0FBE1E
:103AF000CDBFCF91DF910895DF93CF9300D000D059
:103B00000F92CDB7DEB79A8389836B835D834C8335
:103B10008B81282F30E040E050E089819A81EC8150
:103B2000FD81BA01A9019F01A9DF0F900F900F90AD
:103B30000F900F90CF91DF910895DF93CF93CDB782
:103B4000DEB7C0D00E94C6000E94A50081E699E1C0
:103B50000097D1F3B6DBF8CFDF93CF93CDB7DEB7C5
:103B6000CF91DF9108951F920F920FB60F921124FB
:103B70002F933F938F939F93AF93BF938091E805CB
:103B80009091E905A091EA05B091EB053091EC0523
:103B90000196A11DB11D232F2D5F2D3720F02D572C
:103BA0000196A11DB11D2093EC058093E80590932B
:103BB000E905A093EA05B093EB058091E4059091A7
:103BC000E505A091E605B091E7050196A11DB11D9F
:103BD0008093E4059093E505A093E605B093E7058F
:103BE000BF91AF919F918F913F912F910F900FBEF9
:103BF0000F901F9018958FB7F8942091E805309199
:103C0000E9054091EA055091EB058FBFB901CA0162
:103C100008959B01AC017FB7F8948091E4059091E1
:103C2000E505A091E605B091E70566B5A89B05C03E
:103C30006F3F19F00196A11DB11D7FBFBA2FA92FAB
:103C4000982F8827860F911DA11DB11D62E0880F56
:103C5000991FAA1FBB1F6A95D1F7BC012DC0FFB7E2
:103C6000F8948091E4059091E505A091E605B09166
:103C7000E705E6B5A89B05C0EF3F19F00196A11D29
:103C8000B11DFFBFBA2FA92F982F88278E0F911D26
:103C9000A11DB11DE2E0880F991FAA1FBB1FEA9565
:103CA000D1F7861B970B885E9340C8F221503040B5
:103CB0004040504068517C4F211531054105510568
:103CC00071F60895789484B5826084BD84B581606E
:103CD00084BD85B5826085BD85B5816085BDEEE614
:103CE000F0E0808181608083E1E8F0E010828081F3
:103CF00082608083808181608083E0E8F0E0808161
:103D000081608083E1EBF0E0808184608083E0EB80
:103D1000F0E0808181608083EAE7F0E08081846068
:103D200080838081826080838081816080838081C4
:103D3000806880831092C1000895CF93DF93482F4D
:103D400050E0CA0186569F4FFC0134914A575F4F9D
:103D5000FA018491882369F190E0880F991FFC0192
:103D6000E859FF4FA591B491FC01EE58FF4FC59162
:103D7000D491662351F42FB7F8948C91932F90959A
:103D800089238C93888189230BC0623061F42FB71B
:103D9000F8948C91932F909589238C938881832B11
:103DA00088832FBF06C09FB7F8948C91832B8C9388
:103DB0009FBFDF91CF910895482F50E0CA018255EF
:103DC0009F4FFC012491CA0186569F4FFC0194919C
:103DD0004A575F4FFA013491332309F440C022233C
:103DE00051F1233071F0243028F42130A1F0223039
:103DF00011F514C02630B1F02730C1F02430D9F4C9
:103E000004C0809180008F7703C0809180008F7DF7
:103E10008093800010C084B58F7702C084B58F7DF9
:103E200084BD09C08091B0008F7703C08091B0003D
:103E30008F7D8093B000E32FF0E0EE0FFF1FEE5870
:103E4000FF4FA591B4912FB7F894662321F48C917C
:103E50009095892302C08C91892B8C932FBF089554
:103E6000629FD001739FF001829FE00DF11D649F5E
:103E7000E00DF11D929FF00D839FF00D749FF00DEA
:103E8000659FF00D9927729FB00DE11DF91F639F8B
:103E9000B00DE11DF91FBD01CF011124089597FB5D
:103EA000092E07260AD077FD04D02ED006D0002098
:103EB0001AF4709561957F4F0895F6F79095819566
:103EC0009F4F0895A1E21A2EAA1BBB1BFD010DC036
:103ED000AA1FBB1FEE1FFF1FA217B307E407F507BA
:103EE00020F0A21BB30BE40BF50B661F771F881F96
:103EF000991F1A9469F760957095809590959B012C
:103F0000AC01BD01CF010895AA1BBB1B51E107C045
:103F1000AA1FBB1FA617B70710F0A61BB70B881F59
:103F2000991F5A95A9F780959095BC01CD010895E8
:103F3000EE0FFF1F0590F491E02D0994F894FFCF48
:103F40000D00FFFFFFFF00000000D1038903E7021F
:103F5000FF022B03520300000000AC1D261CAC1D09
:103F6000AC1DAC1DAC1D000000007D11261C000026
:103F70000000AC1D00000000491A261C3B19BE19A8
:103F800076191E1A00000000AF1B00000000AC1DD7
:023F9000261CED
:00000001FF
